:100000000C9438000C9455000C9455000C94550039
:100010000C9455000C9455000C9455000C9455000C
:100020000C9455000C9455000C9455000C945500FC
:100030000C9455000C9455000C9455000C945500EC
:100040000C9455000C9455000C9455000C945500DC
:100050000C9447020C9475020C9455000C945500B6
:100060000C9455000C9455000C9455000C945500BC
:1000700011241FBECFEFD0E1DEBFCDBF12E0A0E064
:10008000B1E0EAE6FCE002C005900D92A233B107B0
:10009000D9F722E0A2E3B2E001C01D92AF3CB20763
:1000A000E1F70E9401030C9433060C94000083E5F1
:1000B0008CBD1DBC08958EBD0DB407FEFDCF8EB561
:1000C0000895FF920F931F93CF93DF932C9885E3AE
:1000D0008A95F1F70000C0E0D0E0F12CCE01F4E009
:1000E000880F991FFA95E1F78C600E945B00082F3A
:1000F00010E080E00E945B00302F2227282BB4E024
:1001000036952795BA95E1F785E38A95F1F70000D2
:10011000CC2389F08F2D90E0880F991FDC01AD551D
:10012000BD4FFC01E958FD4F808191818D939C93D7
:1001300031832083F3942196C930D10579F62C9A26
:100140002B9885E38A95F1F70000C0E0D0E0CE015E
:1001500054E0880F991F5A95E1F78C600E945B006C
:10016000082F10E080E00E945B00302F2227282B10
:1001700074E0369527957A95E1F785E38A95F1F74E
:100180000000CC2389F08F2D90E0880F991FDC01AF
:10019000AD55BD4FFC01E958FD4F808191818D9394
:1001A0009C9331832083F3942196C930D10579F64D
:1001B0002B9ADF91CF911F910F91FF9008950F938C
:1001C0001F93CF93DF93CDB7DEB76A970FB6F8943E
:1001D000DEBF0FBECDBF8C018AE1689FB001112444
:1001E0004AE150E0CE0101960E94FB0589E091E0D2
:1001F0000E94E6028AE1FE013196D80101900D923B
:100200008A95E1F7C8016A960FB6F894DEBF0FBE73
:10021000CDBFDF91CF911F910F910895CF93DF93C1
:10022000CDB7DEB723E233E23E832D839AE1899F87
:10023000B00111244AE150E0CE0105960E940B0660
:10024000DF91CF910895CF93DF93CDB7DEB760975D
:100250000FB6F894DEBF0FBECDBF8E89833209F092
:100260009CC08D89833209F098C08DE191E00E9495
:10027000E602CE0147960E94E60286EE91E00E94D9
:10028000E60288E291E00E94E602CE014F960E94CB
:10029000E60286EE91E00E94E60285E391E00E948C
:1002A000E6024AE0BE016F5F7F4F8FA198A50E94D2
:1002B000CE05CE0101960E94E60286EE91E00E94F4
:1002C000E60280E491E00E94E6024AE0BE016F5F30
:1002D0007F4F89A59AA50E94CE05CE0101960E9466
:1002E000E60286EE91E00E94E6028CE491E00E9434
:1002F000E6028BA54AE0BE016F5F7F4F90E00E944F
:10030000CE05CE0101960E94E60286EE91E00E94A3
:10031000E60288E591E00E94E6028CA54AE0BE0173
:100320006F5F7F4F90E00E94CE05CE0101960E9444
:10033000E60286EE91E00E94E60285E691E00E94E8
:10034000E6028DA54AE0BE016F5F7F4F90E00E94FC
:10035000CE05CE0101960E94E60286EE91E00E9453
:10036000E6028CE691E00E94E6028EA54AE0BE011C
:100370006F5F7F4F90E00E94CE05CE0101960E94F4
:10038000E60286EE91E00E94E60288E791E00E9494
:10039000E60286EE91E00E94E60260960FB6F894BF
:1003A000DEBF0FBECDBFDF91CF910895CF93DF9316
:1003B000CDB7DEB728970FB6F894DEBF0FBECDBF1E
:1003C000182F80E991E00E94E6024AE0BE016F5FCB
:1003D0007F4F812F90E00E94CE05CE0101960E94B2
:1003E000E60286EE91E00E94E60281EA91E00E9438
:1003F000E6020E94B80288379105B9F3A895F9CFB3
:100400004F925F926F927F92AF92BF92CF92DF92A4
:10041000EF92FF920F931F93CF93DF93CDB7DEB789
:1004200029013A01621B730B840B950B29893A89C8
:100430004B895C892A193B094C095D09298B3A8B48
:100440004B8B5C8B9B01AC0169897A898B899C8978
:100450000E943605E418F50806091709A801970156
:100460000E9446052A0D3B1D4C1D5D1DCA01B901A8
:10047000DF91CF911F910F91FF90EF90DF90CF9080
:10048000BF90AF907F906F905F904F9008951F92B4
:100490000F920FB60F9211242F938F939F93EF9388
:1004A000FF938091C0009091C6008871E091340262
:1004B000EF5FEF7120913302E21739F0E0933402DD
:1004C000F0E0E95CFD4F908301C082E09091320240
:1004D000982B90933202FF91EF919F918F912F91E2
:1004E0000F900FBE0F901F9018951F920F920FB68E
:1004F0000F9211248F939F93EF93FF939091360265
:1005000080913502981769F0E0913502EF5FEF7145
:10051000E0933502F0E0E95AFD4F80818093C600F8
:1005200005C08091C1008F7D8093C100FF91EF9144
:100530009F918F910F900FBE0F901F901895109262
:10054000360210923502109234021092330297FF55
:1005500004C022E02093C0009F779093C500809351
:10056000C40088E98093C10086E08093C2000895AA
:100570009091340280913302981781F0E091330218
:10058000EF5FEF71E0933302F0E0E95CFD4F8081B3
:10059000909132021092320290E0089580E091E052
:1005A0000895909136029F5F9F71209135029217B6
:1005B000E1F3E92FF0E0E95AFD4F80839093360292
:1005C0008091C10080628093C1000895CF93DF9332
:1005D000EC018991882319F00E94D102FACFDF91B2
:1005E000CF910895CF93DF93FC018491EF01219681
:1005F000882321F00E94D102FE01F7CFDF91CF9135
:100600000895CF93DF93CDB7DEB7C455D1090FB6A8
:10061000F894DEBF0FBECDBF2EE088E190E00FB6AC
:10062000F894A895809360000FBE2093600080E14D
:1006300090E00E949F0285EA91E00E94E602789491
:1006400087E0E0E0F1E0DE015D9601900D928A9591
:10065000E1F782E69FE6AFE6B0E08DA39EA3AFA3ED
:10066000B8A788EE93E09EA78DA789EE90E098AB9F
:100670008FA781E089AB9FE79AAB9CE09BAB8CABEB
:100680002698279A259A249A239A83E58CBD1DBC27
:100690002C9A2B9A212C812C33E2A32EBA2C0E9467
:1006A0006100211068C080917702909178022091BA
:1006B000A3023091A402A9014C5F5F4F481759076C
:1006C00030F0245031098217930708F0BBC060E076
:1006D000CE014B960E94DF008B8D833209F0B2C0B1
:1006E0008C8D833209F0AEC049A8512C612C712C3D
:1006F000CDA4DEA4E12CF12C209177023091780278
:1007000040E050E02C193D094E095F096AA970E0EC
:1007100080E090E064197509860997090E94360502
:100720002FA538A940E050E02C193D094E095F097A
:100730000E94460569017A01C40CD51CE61CF71C11
:1007400088EB91E00E94E6024AE0BE016B5B7F4FBE
:1007500080E090E00E94CE05CE018B5B9F4F0E940F
:10076000E60282EB91E00E94E6024AE0BE016B5B8A
:100770007F4F8C2D5BC0032D10E0C801880F991F9F
:10078000FC01E958FD4F20813181FC01ED55FD4F01
:1007900080819181AC014C5F5F4F4217530728F075
:1007A00004972817390708F04DC0C9A8D12CE12CAF
:1007B000F12C4DA45EA4612C712C40E050E0241972
:1007C0003509460957096AA970E080E090E06C1984
:1007D0007D098E099F090E9436052FA538A940E0A2
:1007E00050E024193509460957090E944605290198
:1007F0003A014C0C5D1C6E1C7F1C86EB91E00E9444
:10080000E6024AE0BE016B5B7F4FC8010E94CE0545
:10081000CE018B5B9F4F0E94E60282EB91E00E942B
:10082000E6024AE0BE016B5B7F4F842D90E00E94A0
:10083000CE05CE018B5B9F4F0E94E60286EE91E0D3
:100840000E94E6020E94B80290FDB0C0092D10E09F
:10085000E5E3F0E0EC0FFD1FE00FF11F80838A302D
:1008600031F0939420E1291508F49FC09FC08DA911
:100870008D3629F5CE01C6960E94A105F82E8FE08F
:100880008F15E8F082EC91E00E94E6024AE0BE019A
:100890006B5B7F4F8F2D90E00E94CE05CE018B5B6E
:1008A0009F4F0E94E60286EE91E00E94E6026F2DC5
:1008B000CE014B960E94DF003F2C222423948DA969
:1008C0008037C9F48DB79EB74A970FB6F8949EBF8C
:1008D0000FBE8DBFADB7BEB71196FE017B968AE104
:1008E00001900D928A95E1F70E9423010FB6F894CA
:1008F000DEBF0FBECDBF8DA9833731F484ED91E00B
:100900000E94E602882483948DA9883709F476C072
:100910008DA98737C9F4FE017B96DE0111968AE125
:1009200001900D928A95E1F7BA82A9829AE1399EE7
:10093000B00111244AE150E0CE0101960E940B065D
:1009400088E192E00E94E6028DA9813689F4A8012F
:1009500041505109E5E3F0E0EC0FFD1FE40FF51FF6
:100960001082BE016A5C7F4FCE014D960E94BF058A
:100970008DA9823689F4A80141505109E5E3F0E0E0
:10098000EC0FFD1FE40FF51F1082BE016A5C7F4F64
:10099000CE0185960E94BF058DA98336E9F5CE016B
:1009A000C6960E94A1059EA78DA7912C8820D9F0FC
:1009B000E32DF0E0EE0FFF1FE958FD4F4AE0BE01C6
:1009C0006B5B7F4F808191810E94CE058CE292E02B
:1009D0000E94E602CE018B5B9F4F0E94E60286EEEC
:1009E00091E00E94E6022FEF82E597E021508040DF
:1009F0009040E1F700C00000A89551CE882031F06A
:100A000089EE91E00E94E602812C82CF83E092E0A1
:100A10000E94E602212C7CCF843639F4CE01C696A2
:100A20000E94A10598AB8FA7C0CF853631F4CE01C7
:100A3000C6960E94A10589ABB8CF863631F4CE01A7
:100A4000C6960E94A1058AABB0CF873631F4CE019D
:100A5000C6960E94A1058BABA8CF883609F0A5CF1A
:100A6000CE01C6960E94A1058CAB9FCFDB018F9370
:100A70009F930E946505BF91AF91A29F800D911D2C
:100A8000A39F900DB29F900D11240895052E97FB02
:100A90001EF400940E945D0557FD07D00E9470056A
:100AA00007FC03D04EF40C945D05509540953095AD
:100AB00021953F4F4F4F5F4F0895909580957095CA
:100AC00061957F4F8F4F9F4F08950E949205A59F7C
:100AD000900DB49F900DA49F800D911D1124089539
:100AE000A1E21A2EAA1BBB1BFD010DC0AA1FBB1F32
:100AF000EE1FFF1FA217B307E407F50720F0A21BA4
:100B0000B30BE40BF50B661F771F881F991F1A9410
:100B100069F760957095809590959B01AC01BD013A
:100B2000CF010895A29FB001B39FC001A39F700D94
:100B3000811D1124911DB29F700D811D1124911DE5
:100B40000895FC0188279927E89421912032E9F340
:100B5000293010F02E30C8F32B3241F02D3239F409
:100B6000689404C00E94D905820F911D21912053E1
:100B70002A30C0F31EF4909581959F4F0895FB0194
:100B8000DC014150504048F001900D920020C9F71F
:100B900001C01D9241505040E0F70895BB274A30F4
:100BA00031F4992322F4BDE2909581959F4F0C94E6
:100BB000E2057AE0979F902D879F802D910D11245B
:100BC0000895BB27FB015527AA27880F991FAA1F45
:100BD000A41710F0A41B83955051B9F7A05DAA3358
:100BE00008F0A95DA193009779F7B111B193119223
:100BF000CB010C942306DC01CB01FC01F999FECF5B
:100C000006C0F2BDE1BDF89A319600B40D92415094
:100C10005040B8F70895DC01CB0103C02D910E942C
:100C2000160641505040D0F70895262FF999FECF6F
:100C30001FBA92BD81BD20BD0FB6F894FA9AF99AF9
:100C40000FBE01960895DC01FC01672F7191772397
:100C5000E1F7329704C07C916D9370836291AE1777
:0A0C6000BF07C8F30895F894FFCF12
:100C6A005365636F6E6400000452656164696E6760
:100C7A00206D617070696E672E2E0D0A00612E4418
:100C8A0065766963653A2000622E66756E637469DB
:100C9A006F6E3A2000632E4C6F7720696E3A2000FF
:100CAA00642E4869676820696E3A2000652E4C6F89
:100CBA0077206F75743A2000662E48696768206F3E
:100CCA0075743A2000672E43433A2000682E436821
:100CDA00616E6E656C3A20002D2D2D2D2D2D2D2D3A
:100CEA002D2D2D2D2D2D2D2D2D2D2D2D2D2D2D0057
:100CFA0045646974696E67204A6F696E742023209F
:100D0A00003E2020005374617274696E673B200DA7
:100D1A000A00203D2000452E4D617070696E6720E3
:100D2A00230045646974696E67206D617070696E2D
:100D3A006720230053747265616D696E672076615E
:100D4A006C7565733A200D0A0053746F70207374C2
:100D5A007265616D696E672076616C7565733A209C
:100D6A000D0A0045786974696E67206564697420A4
:100D7A006D6F64652E0D0A005772697474656E2072
:100D8A00746F20454550524F4D0D0A005261773A13
:020D9A00200037
:00000001FF
